{
    "_format": "hh-sol-artifact-1",
    "contractName": "Transactions",
    "sourceName": "contracts/Transactions.sol",
    "abi": [
        {
            "anonymous": false,
            "inputs": [
                {
                    "indexed": false,
                    "internalType": "address",
                    "name": "from",
                    "type": "address"
                },
                {
                    "indexed": false,
                    "internalType": "address",
                    "name": "receiver",
                    "type": "address"
                },
                {
                    "indexed": false,
                    "internalType": "uint256",
                    "name": "amount",
                    "type": "uint256"
                },
                {
                    "indexed": false,
                    "internalType": "string",
                    "name": "message",
                    "type": "string"
                },
                {
                    "indexed": false,
                    "internalType": "uint256",
                    "name": "timestamp",
                    "type": "uint256"
                },
                {
                    "indexed": false,
                    "internalType": "string",
                    "name": "keyword",
                    "type": "string"
                }
            ],
            "name": "Transfer",
            "type": "event"
        },
        {
            "inputs": [
                {
                    "internalType": "address payable",
                    "name": "receiver",
                    "type": "address"
                },
                {
                    "internalType": "uint256",
                    "name": "amount",
                    "type": "uint256"
                },
                {
                    "internalType": "string",
                    "name": "message",
                    "type": "string"
                },
                {
                    "internalType": "string",
                    "name": "keyword",
                    "type": "string"
                }
            ],
            "name": "addToBlockchain",
            "outputs": [],
            "stateMutability": "nonpayable",
            "type": "function"
        },
        {
            "inputs": [],
            "name": "getAllTransaction",
            "outputs": [
                {
                    "components": [
                        {
                            "internalType": "address",
                            "name": "sender",
                            "type": "address"
                        },
                        {
                            "internalType": "address",
                            "name": "receiver",
                            "type": "address"
                        },
                        {
                            "internalType": "uint256",
                            "name": "amount",
                            "type": "uint256"
                        },
                        {
                            "internalType": "string",
                            "name": "message",
                            "type": "string"
                        },
                        {
                            "internalType": "uint256",
                            "name": "timestamp",
                            "type": "uint256"
                        },
                        {
                            "internalType": "string",
                            "name": "keyword",
                            "type": "string"
                        }
                    ],
                    "internalType": "struct Transactions.TransferStruct[]",
                    "name": "",
                    "type": "tuple[]"
                }
            ],
            "stateMutability": "view",
            "type": "function"
        },
        {
            "inputs": [],
            "name": "getTransactionCount",
            "outputs": [
                {
                    "internalType": "uint256",
                    "name": "length",
                    "type": "uint256"
                }
            ],
            "stateMutability": "view",
            "type": "function"
        },
        {
            "inputs": [
                {
                    "internalType": "uint256",
                    "name": "",
                    "type": "uint256"
                }
            ],
            "name": "transactions",
            "outputs": [
                {
                    "internalType": "address",
                    "name": "sender",
                    "type": "address"
                },
                {
                    "internalType": "address",
                    "name": "receiver",
                    "type": "address"
                },
                {
                    "internalType": "uint256",
                    "name": "amount",
                    "type": "uint256"
                },
                {
                    "internalType": "string",
                    "name": "message",
                    "type": "string"
                },
                {
                    "internalType": "uint256",
                    "name": "timestamp",
                    "type": "uint256"
                },
                {
                    "internalType": "string",
                    "name": "keyword",
                    "type": "string"
                }
            ],
            "stateMutability": "view",
            "type": "function"
        }
    ],
    "bytecode": "0x608060405234801561001057600080fd5b50611096806100206000396000f3fe608060405234801561001057600080fd5b506004361061004c5760003560e01c80632e7700f0146100515780639ace38c21461006f578063add6415d146100a4578063cc2d7ead146100c2575b600080fd5b6100596100de565b6040516100669190610691565b60405180910390f35b610089600480360381019061008491906106ec565b6100e7565b60405161009b969594939291906107ea565b60405180910390f35b6100ac610283565b6040516100b99190610a13565b60405180910390f35b6100dc60048036038101906100d79190610ba8565b6104c6565b005b60008054905090565b600181815481106100f757600080fd5b90600052602060002090600602016000915090508060000160009054906101000a900473ffffffffffffffffffffffffffffffffffffffff16908060010160009054906101000a900473ffffffffffffffffffffffffffffffffffffffff169080600201549080600301805461016c90610c76565b80601f016020809104026020016040519081016040528092919081815260200182805461019890610c76565b80156101e55780601f106101ba576101008083540402835291602001916101e5565b820191906000526020600020905b8154815290600101906020018083116101c857829003601f168201915b50505050509080600401549080600501805461020090610c76565b80601f016020809104026020016040519081016040528092919081815260200182805461022c90610c76565b80156102795780601f1061024e57610100808354040283529160200191610279565b820191906000526020600020905b81548152906001019060200180831161025c57829003601f168201915b5050505050905086565b60606001805480602002602001604051908101604052809291908181526020016000905b828210156104bd57838290600052602060002090600602016040518060c00160405290816000820160009054906101000a900473ffffffffffffffffffffffffffffffffffffffff1673ffffffffffffffffffffffffffffffffffffffff1673ffffffffffffffffffffffffffffffffffffffff1681526020016001820160009054906101000a900473ffffffffffffffffffffffffffffffffffffffff1673ffffffffffffffffffffffffffffffffffffffff1673ffffffffffffffffffffffffffffffffffffffff1681526020016002820154815260200160038201805461039090610c76565b80601f01602080910402602001604051908101604052809291908181526020018280546103bc90610c76565b80156104095780601f106103de57610100808354040283529160200191610409565b820191906000526020600020905b8154815290600101906020018083116103ec57829003601f168201915b505050505081526020016004820154815260200160058201805461042c90610c76565b80601f016020809104026020016040519081016040528092919081815260200182805461045890610c76565b80156104a55780601f1061047a576101008083540402835291602001916104a5565b820191906000526020600020905b81548152906001019060200180831161048857829003601f168201915b505050505081525050815260200190600101906102a7565b50505050905090565b6000808154809291906104d890610cd6565b919050555060016040518060c001604052803373ffffffffffffffffffffffffffffffffffffffff1681526020018673ffffffffffffffffffffffffffffffffffffffff16815260200185815260200184815260200142815260200183815250908060018154018082558091505060019003906000526020600020906006020160009091909190915060008201518160000160006101000a81548173ffffffffffffffffffffffffffffffffffffffff021916908373ffffffffffffffffffffffffffffffffffffffff16021790555060208201518160010160006101000a81548173ffffffffffffffffffffffffffffffffffffffff021916908373ffffffffffffffffffffffffffffffffffffffff16021790555060408201518160020155606082015181600301908161060e9190610eca565b506080820151816004015560a082015181600501908161062e9190610eca565b5050507f416cfa4330a4565f45c2fd2dd4826a83a37443aba2ce6f79477c7355afac35fa33858585428660405161066a96959493929190610ff1565b60405180910390a150505050565b6000819050919050565b61068b81610678565b82525050565b60006020820190506106a66000830184610682565b92915050565b6000604051905090565b600080fd5b600080fd5b6106c981610678565b81146106d457600080fd5b50565b6000813590506106e6816106c0565b92915050565b600060208284031215610702576107016106b6565b5b6000610710848285016106d7565b91505092915050565b600073ffffffffffffffffffffffffffffffffffffffff82169050919050565b600061074482610719565b9050919050565b61075481610739565b82525050565b600081519050919050565b600082825260208201905092915050565b60005b83811015610794578082015181840152602081019050610779565b60008484015250505050565b6000601f19601f8301169050919050565b60006107bc8261075a565b6107c68185610765565b93506107d6818560208601610776565b6107df816107a0565b840191505092915050565b600060c0820190506107ff600083018961074b565b61080c602083018861074b565b6108196040830187610682565b818103606083015261082b81866107b1565b905061083a6080830185610682565b81810360a083015261084c81846107b1565b9050979650505050505050565b600081519050919050565b600082825260208201905092915050565b6000819050602082019050919050565b61088e81610739565b82525050565b61089d81610678565b82525050565b600082825260208201905092915050565b60006108bf8261075a565b6108c981856108a3565b93506108d9818560208601610776565b6108e2816107a0565b840191505092915050565b600060c0830160008301516109056000860182610885565b5060208301516109186020860182610885565b50604083015161092b6040860182610894565b506060830151848203606086015261094382826108b4565b91505060808301516109586080860182610894565b5060a083015184820360a086015261097082826108b4565b9150508091505092915050565b600061098983836108ed565b905092915050565b6000602082019050919050565b60006109a982610859565b6109b38185610864565b9350836020820285016109c585610875565b8060005b85811015610a0157848403895281516109e2858261097d565b94506109ed83610991565b925060208a019950506001810190506109c9565b50829750879550505050505092915050565b60006020820190508181036000830152610a2d818461099e565b905092915050565b6000610a4082610719565b9050919050565b610a5081610a35565b8114610a5b57600080fd5b50565b600081359050610a6d81610a47565b92915050565b600080fd5b600080fd5b7f4e487b7100000000000000000000000000000000000000000000000000000000600052604160045260246000fd5b610ab5826107a0565b810181811067ffffffffffffffff82111715610ad457610ad3610a7d565b5b80604052505050565b6000610ae76106ac565b9050610af38282610aac565b919050565b600067ffffffffffffffff821115610b1357610b12610a7d565b5b610b1c826107a0565b9050602081019050919050565b82818337600083830152505050565b6000610b4b610b4684610af8565b610add565b905082815260208101848484011115610b6757610b66610a78565b5b610b72848285610b29565b509392505050565b600082601f830112610b8f57610b8e610a73565b5b8135610b9f848260208601610b38565b91505092915050565b60008060008060808587031215610bc257610bc16106b6565b5b6000610bd087828801610a5e565b9450506020610be1878288016106d7565b935050604085013567ffffffffffffffff811115610c0257610c016106bb565b5b610c0e87828801610b7a565b925050606085013567ffffffffffffffff811115610c2f57610c2e6106bb565b5b610c3b87828801610b7a565b91505092959194509250565b7f4e487b7100000000000000000000000000000000000000000000000000000000600052602260045260246000fd5b60006002820490506001821680610c8e57607f821691505b602082108103610ca157610ca0610c47565b5b50919050565b7f4e487b7100000000000000000000000000000000000000000000000000000000600052601160045260246000fd5b6000610ce182610678565b91507fffffffffffffffffffffffffffffffffffffffffffffffffffffffffffffffff8203610d1357610d12610ca7565b5b600182019050919050565b60008190508160005260206000209050919050565b60006020601f8301049050919050565b600082821b905092915050565b600060088302610d807fffffffffffffffffffffffffffffffffffffffffffffffffffffffffffffffff82610d43565b610d8a8683610d43565b95508019841693508086168417925050509392505050565b6000819050919050565b6000610dc7610dc2610dbd84610678565b610da2565b610678565b9050919050565b6000819050919050565b610de183610dac565b610df5610ded82610dce565b848454610d50565b825550505050565b600090565b610e0a610dfd565b610e15818484610dd8565b505050565b5b81811015610e3957610e2e600082610e02565b600181019050610e1b565b5050565b601f821115610e7e57610e4f81610d1e565b610e5884610d33565b81016020851015610e67578190505b610e7b610e7385610d33565b830182610e1a565b50505b505050565b600082821c905092915050565b6000610ea160001984600802610e83565b1980831691505092915050565b6000610eba8383610e90565b9150826002028217905092915050565b610ed38261075a565b67ffffffffffffffff811115610eec57610eeb610a7d565b5b610ef68254610c76565b610f01828285610e3d565b600060209050601f831160018114610f345760008415610f22578287015190505b610f2c8582610eae565b865550610f94565b601f198416610f4286610d1e565b60005b82811015610f6a57848901518255600182019150602085019450602081019050610f45565b86831015610f875784890151610f83601f891682610e90565b8355505b6001600288020188555050505b505050505050565b6000610fb7610fb2610fad84610719565b610da2565b610719565b9050919050565b6000610fc982610f9c565b9050919050565b6000610fdb82610fbe565b9050919050565b610feb81610fd0565b82525050565b600060c082019050611006600083018961074b565b6110136020830188610fe2565b6110206040830187610682565b818103606083015261103281866107b1565b90506110416080830185610682565b81810360a083015261105381846107b1565b905097965050505050505056fea2646970667358221220c6cd7115feb87a831343362d99a0a33014422566e13796437ed3f9582487fd9a64736f6c63430008110033",
    "linkReferences": {},
    "deployedLinkReferences": {}
}